{
  "address": "0xe7f1725E7734CE288F8367e1Bb143E90bb3F0512",
  "abi": [
    {
      "inputs": [
        {
          "internalType": "address",
          "name": "s_priceFeedAddress",
          "type": "address"
        }
      ],
      "stateMutability": "nonpayable",
      "type": "constructor"
    },
    {
      "inputs": [],
      "name": "FundMe__NotOwner",
      "type": "error"
    },
    {
      "inputs": [],
      "name": "MINIMUM_USD",
      "outputs": [
        {
          "internalType": "uint256",
          "name": "",
          "type": "uint256"
        }
      ],
      "stateMutability": "view",
      "type": "function"
    },
    {
      "inputs": [],
      "name": "fund",
      "outputs": [],
      "stateMutability": "payable",
      "type": "function"
    },
    {
      "inputs": [
        {
          "internalType": "address",
          "name": "funder",
          "type": "address"
        }
      ],
      "name": "getAddressToAmountFunded",
      "outputs": [
        {
          "internalType": "uint256",
          "name": "",
          "type": "uint256"
        }
      ],
      "stateMutability": "view",
      "type": "function"
    },
    {
      "inputs": [
        {
          "internalType": "uint256",
          "name": "index",
          "type": "uint256"
        }
      ],
      "name": "getFunder",
      "outputs": [
        {
          "internalType": "address",
          "name": "",
          "type": "address"
        }
      ],
      "stateMutability": "view",
      "type": "function"
    },
    {
      "inputs": [],
      "name": "getOwner",
      "outputs": [
        {
          "internalType": "address",
          "name": "",
          "type": "address"
        }
      ],
      "stateMutability": "view",
      "type": "function"
    },
    {
      "inputs": [],
      "name": "getPriceFeed",
      "outputs": [
        {
          "internalType": "contract AggregatorV3Interface",
          "name": "",
          "type": "address"
        }
      ],
      "stateMutability": "view",
      "type": "function"
    },
    {
      "inputs": [],
      "name": "withdraw",
      "outputs": [],
      "stateMutability": "nonpayable",
      "type": "function"
    }
  ],
  "transactionHash": "0x2bf833e6d3c34a79cf52a78dfdb0224ff87137d93cd205e12ffeb74c3ffc4276",
  "args": [
    "0x5FbDB2315678afecb367f032d93F642f64180aa3"
  ],
  "numDeployments": 1,
  "solcInputHash": "f24e4033212d1791bfd8a5808a5063ba",
  "bytecode": "0x608060405234801561001057600080fd5b5060405162001008380380620010088339818101604052810190610034919061011f565b33600260006101000a81548173ffffffffffffffffffffffffffffffffffffffff021916908373ffffffffffffffffffffffffffffffffffffffff16021790555080600360006101000a81548173ffffffffffffffffffffffffffffffffffffffff021916908373ffffffffffffffffffffffffffffffffffffffff1602179055505061014c565b600080fd5b600073ffffffffffffffffffffffffffffffffffffffff82169050919050565b60006100ec826100c1565b9050919050565b6100fc816100e1565b811461010757600080fd5b50565b600081519050610119816100f3565b92915050565b600060208284031215610135576101346100bc565b5b60006101438482850161010a565b91505092915050565b610eac806200015c6000396000f3fe6080604052600436106100705760003560e01c8063893d20e81161004e578063893d20e8146100f45780639e87a5cd1461011f578063b60d42881461014a578063d7b4750c1461015457610070565b80630343fb25146100755780633ccfd60b146100b25780636b69a592146100c9575b600080fd5b34801561008157600080fd5b5061009c600480360381019061009791906107e4565b610191565b6040516100a9919061082a565b60405180910390f35b3480156100be57600080fd5b506100c76101d9565b005b3480156100d557600080fd5b506100de61041b565b6040516100eb919061082a565b60405180910390f35b34801561010057600080fd5b50610109610428565b6040516101169190610854565b60405180910390f35b34801561012b57600080fd5b50610134610452565b60405161014191906108ce565b60405180910390f35b61015261047c565b005b34801561016057600080fd5b5061017b60048036038101906101769190610915565b6105b6565b6040516101889190610854565b60405180910390f35b60008060008373ffffffffffffffffffffffffffffffffffffffff1673ffffffffffffffffffffffffffffffffffffffff168152602001908152602001600020549050919050565b600260009054906101000a900473ffffffffffffffffffffffffffffffffffffffff1673ffffffffffffffffffffffffffffffffffffffff163373ffffffffffffffffffffffffffffffffffffffff1614610260576040517f579610db00000000000000000000000000000000000000000000000000000000815260040160405180910390fd5b60005b60018054905081101561030b5760006001828154811061028657610285610942565b5b9060005260206000200160009054906101000a900473ffffffffffffffffffffffffffffffffffffffff16905060008060008373ffffffffffffffffffffffffffffffffffffffff1673ffffffffffffffffffffffffffffffffffffffff16815260200190815260200160002081905550508080610303906109a0565b915050610263565b50600067ffffffffffffffff811115610327576103266109e9565b5b6040519080825280602002602001820160405280156103555781602001602082028036833780820191505090505b506001908051906020019061036b9291906106da565b5060003373ffffffffffffffffffffffffffffffffffffffff164760405161039290610a49565b60006040518083038185875af1925050503d80600081146103cf576040519150601f19603f3d011682016040523d82523d6000602084013e6103d4565b606091505b5050905080610418576040517f08c379a000000000000000000000000000000000000000000000000000000000815260040161040f90610abb565b60405180910390fd5b50565b6802b5e3af16b188000081565b6000600260009054906101000a900473ffffffffffffffffffffffffffffffffffffffff16905090565b6000600360009054906101000a900473ffffffffffffffffffffffffffffffffffffffff16905090565b6802b5e3af16b18800006104bb600360009054906101000a900473ffffffffffffffffffffffffffffffffffffffff16346105fe90919063ffffffff16565b10156104fc576040517f08c379a00000000000000000000000000000000000000000000000000000000081526004016104f390610b27565b60405180910390fd5b346000803373ffffffffffffffffffffffffffffffffffffffff1673ffffffffffffffffffffffffffffffffffffffff168152602001908152602001600020600082825461054a9190610b47565b925050819055506001339080600181540180825580915050600190039060005260206000200160009091909190916101000a81548173ffffffffffffffffffffffffffffffffffffffff021916908373ffffffffffffffffffffffffffffffffffffffff160217905550565b6000600182815481106105cc576105cb610942565b5b9060005260206000200160009054906101000a900473ffffffffffffffffffffffffffffffffffffffff169050919050565b60008061060a8361063a565b90506000670de0b6b3a764000085836106239190610b9d565b61062d9190610c26565b9050809250505092915050565b6000808273ffffffffffffffffffffffffffffffffffffffff1663feaf968c6040518163ffffffff1660e01b815260040160a06040518083038186803b15801561068357600080fd5b505afa158015610697573d6000803e3d6000fd5b505050506040513d601f19601f820116820180604052508101906106bb9190610ce4565b5050509150506402540be400816106d29190610d5f565b915050919050565b828054828255906000526020600020908101928215610753579160200282015b828111156107525782518260006101000a81548173ffffffffffffffffffffffffffffffffffffffff021916908373ffffffffffffffffffffffffffffffffffffffff160217905550916020019190600101906106fa565b5b5090506107609190610764565b5090565b5b8082111561077d576000816000905550600101610765565b5090565b600080fd5b600073ffffffffffffffffffffffffffffffffffffffff82169050919050565b60006107b182610786565b9050919050565b6107c1816107a6565b81146107cc57600080fd5b50565b6000813590506107de816107b8565b92915050565b6000602082840312156107fa576107f9610781565b5b6000610808848285016107cf565b91505092915050565b6000819050919050565b61082481610811565b82525050565b600060208201905061083f600083018461081b565b92915050565b61084e816107a6565b82525050565b60006020820190506108696000830184610845565b92915050565b6000819050919050565b600061089461088f61088a84610786565b61086f565b610786565b9050919050565b60006108a682610879565b9050919050565b60006108b88261089b565b9050919050565b6108c8816108ad565b82525050565b60006020820190506108e360008301846108bf565b92915050565b6108f281610811565b81146108fd57600080fd5b50565b60008135905061090f816108e9565b92915050565b60006020828403121561092b5761092a610781565b5b600061093984828501610900565b91505092915050565b7f4e487b7100000000000000000000000000000000000000000000000000000000600052603260045260246000fd5b7f4e487b7100000000000000000000000000000000000000000000000000000000600052601160045260246000fd5b60006109ab82610811565b91507fffffffffffffffffffffffffffffffffffffffffffffffffffffffffffffffff8214156109de576109dd610971565b5b600182019050919050565b7f4e487b7100000000000000000000000000000000000000000000000000000000600052604160045260246000fd5b600081905092915050565b50565b6000610a33600083610a18565b9150610a3e82610a23565b600082019050919050565b6000610a5482610a26565b9150819050919050565b600082825260208201905092915050565b7f43616c6c206661696c6564000000000000000000000000000000000000000000600082015250565b6000610aa5600b83610a5e565b9150610ab082610a6f565b602082019050919050565b60006020820190508181036000830152610ad481610a98565b9050919050565b7f596f75206e65656420746f207370656e64206d6f726520455448210000000000600082015250565b6000610b11601b83610a5e565b9150610b1c82610adb565b602082019050919050565b60006020820190508181036000830152610b4081610b04565b9050919050565b6000610b5282610811565b9150610b5d83610811565b9250827fffffffffffffffffffffffffffffffffffffffffffffffffffffffffffffffff03821115610b9257610b91610971565b5b828201905092915050565b6000610ba882610811565b9150610bb383610811565b9250817fffffffffffffffffffffffffffffffffffffffffffffffffffffffffffffffff0483118215151615610bec57610beb610971565b5b828202905092915050565b7f4e487b7100000000000000000000000000000000000000000000000000000000600052601260045260246000fd5b6000610c3182610811565b9150610c3c83610811565b925082610c4c57610c4b610bf7565b5b828204905092915050565b600069ffffffffffffffffffff82169050919050565b610c7681610c57565b8114610c8157600080fd5b50565b600081519050610c9381610c6d565b92915050565b6000819050919050565b610cac81610c99565b8114610cb757600080fd5b50565b600081519050610cc981610ca3565b92915050565b600081519050610cde816108e9565b92915050565b600080600080600060a08688031215610d0057610cff610781565b5b6000610d0e88828901610c84565b9550506020610d1f88828901610cba565b9450506040610d3088828901610ccf565b9350506060610d4188828901610ccf565b9250506080610d5288828901610c84565b9150509295509295909350565b6000610d6a82610c99565b9150610d7583610c99565b9250827f7fffffffffffffffffffffffffffffffffffffffffffffffffffffffffffffff0482116000841360008413161615610db457610db3610971565b5b817f80000000000000000000000000000000000000000000000000000000000000000583126000841260008413161615610df157610df0610971565b5b827f80000000000000000000000000000000000000000000000000000000000000000582126000841360008412161615610e2e57610e2d610971565b5b827f7fffffffffffffffffffffffffffffffffffffffffffffffffffffffffffffff0582126000841260008412161615610e6b57610e6a610971565b5b82820290509291505056fea264697066735822122023ac818abf8d210c0cd0e2cbc46eaa764338d9a00ba4dd54fd194ea1d0be3c9364736f6c63430008080033",
  "devdoc": {
    "author": "PFX",
    "details": "This implements price feeds as our library",
    "kind": "dev",
    "methods": {},
    "title": "A Contract for crowd funding",
    "version": 1
  },
  "userdoc": {
    "kind": "user",
    "methods": {},
    "notice": "This contract is to demostrate a sample funding contract",
    "version": 1
  },
  "storageLayout": {
    "storage": [
      {
        "astId": 59,
        "contract": "contracts/FundMe.sol:FundMe",
        "label": "s_addressToAmountFunded",
        "offset": 0,
        "slot": "0",
        "type": "t_mapping(t_address,t_uint256)"
      },
      {
        "astId": 62,
        "contract": "contracts/FundMe.sol:FundMe",
        "label": "funders",
        "offset": 0,
        "slot": "1",
        "type": "t_array(t_address)dyn_storage"
      },
      {
        "astId": 64,
        "contract": "contracts/FundMe.sol:FundMe",
        "label": "i_owner",
        "offset": 0,
        "slot": "2",
        "type": "t_address"
      },
      {
        "astId": 74,
        "contract": "contracts/FundMe.sol:FundMe",
        "label": "s_priceFeed",
        "offset": 0,
        "slot": "3",
        "type": "t_contract(AggregatorV3Interface)45"
      }
    ],
    "types": {
      "t_address": {
        "encoding": "inplace",
        "label": "address",
        "numberOfBytes": "20"
      },
      "t_array(t_address)dyn_storage": {
        "base": "t_address",
        "encoding": "dynamic_array",
        "label": "address[]",
        "numberOfBytes": "32"
      },
      "t_contract(AggregatorV3Interface)45": {
        "encoding": "inplace",
        "label": "contract AggregatorV3Interface",
        "numberOfBytes": "20"
      },
      "t_mapping(t_address,t_uint256)": {
        "encoding": "mapping",
        "key": "t_address",
        "label": "mapping(address => uint256)",
        "numberOfBytes": "32",
        "value": "t_uint256"
      },
      "t_uint256": {
        "encoding": "inplace",
        "label": "uint256",
        "numberOfBytes": "32"
      }
    }
  }
}